{
  "_format": "hh-sol-artifact-1",
  "contractName": "Library",
  "sourceName": "contracts/Library.sol",
  "abi": [
    {
      "inputs": [
        {
          "internalType": "uint256",
          "name": "",
          "type": "uint256"
        }
      ],
      "name": "books",
      "outputs": [
        {
          "internalType": "string",
          "name": "title",
          "type": "string"
        },
        {
          "internalType": "string",
          "name": "authorName",
          "type": "string"
        }
      ],
      "stateMutability": "view",
      "type": "function"
    },
    {
      "inputs": [
        {
          "internalType": "string",
          "name": "title",
          "type": "string"
        },
        {
          "internalType": "string",
          "name": "author",
          "type": "string"
        }
      ],
      "name": "createBook",
      "outputs": [],
      "stateMutability": "nonpayable",
      "type": "function"
    },
    {
      "inputs": [
        {
          "internalType": "uint256",
          "name": "index",
          "type": "uint256"
        }
      ],
      "name": "getBook",
      "outputs": [
        {
          "components": [
            {
              "internalType": "string",
              "name": "title",
              "type": "string"
            },
            {
              "internalType": "string",
              "name": "authorName",
              "type": "string"
            }
          ],
          "internalType": "struct Library.Book",
          "name": "",
          "type": "tuple"
        }
      ],
      "stateMutability": "view",
      "type": "function"
    }
  ],
  "bytecode": "0x608060405234801561001057600080fd5b50610ad7806100206000396000f3fe608060405234801561001057600080fd5b50600436106100415760003560e01c80636188f578146100465780636874404614610062578063e0ff5b8b14610093575b600080fd5b610060600480360381019061005b9190610553565b6100c3565b005b61007c60048036038101906100779190610601565b61013b565b60405161008a9291906106ad565b60405180910390f35b6100ad60048036038101906100a89190610601565b61027f565b6040516100ba9190610772565b60405180910390f35b600060405180604001604052808481526020018381525090506000819080600181540180825580915050600190039060005260206000209060020201600090919091909150600082015181600001908161011d91906109a0565b50602082015181600101908161013391906109a0565b505050505050565b6000818154811061014b57600080fd5b906000526020600020906002020160009150905080600001805461016e906107c3565b80601f016020809104026020016040519081016040528092919081815260200182805461019a906107c3565b80156101e75780601f106101bc576101008083540402835291602001916101e7565b820191906000526020600020905b8154815290600101906020018083116101ca57829003601f168201915b5050505050908060010180546101fc906107c3565b80601f0160208091040260200160405190810160405280929190818152602001828054610228906107c3565b80156102755780601f1061024a57610100808354040283529160200191610275565b820191906000526020600020905b81548152906001019060200180831161025857829003601f168201915b5050505050905082565b6102876103df565b6000828154811061029b5761029a610a72565b5b90600052602060002090600202016040518060400160405290816000820180546102c4906107c3565b80601f01602080910402602001604051908101604052809291908181526020018280546102f0906107c3565b801561033d5780601f106103125761010080835404028352916020019161033d565b820191906000526020600020905b81548152906001019060200180831161032057829003601f168201915b50505050508152602001600182018054610356906107c3565b80601f0160208091040260200160405190810160405280929190818152602001828054610382906107c3565b80156103cf5780601f106103a4576101008083540402835291602001916103cf565b820191906000526020600020905b8154815290600101906020018083116103b257829003601f168201915b5050505050815250509050919050565b604051806040016040528060608152602001606081525090565b6000604051905090565b600080fd5b600080fd5b600080fd5b600080fd5b6000601f19601f8301169050919050565b7f4e487b7100000000000000000000000000000000000000000000000000000000600052604160045260246000fd5b61046082610417565b810181811067ffffffffffffffff8211171561047f5761047e610428565b5b80604052505050565b60006104926103f9565b905061049e8282610457565b919050565b600067ffffffffffffffff8211156104be576104bd610428565b5b6104c782610417565b9050602081019050919050565b82818337600083830152505050565b60006104f66104f1846104a3565b610488565b90508281526020810184848401111561051257610511610412565b5b61051d8482856104d4565b509392505050565b600082601f83011261053a5761053961040d565b5b813561054a8482602086016104e3565b91505092915050565b6000806040838503121561056a57610569610403565b5b600083013567ffffffffffffffff81111561058857610587610408565b5b61059485828601610525565b925050602083013567ffffffffffffffff8111156105b5576105b4610408565b5b6105c185828601610525565b9150509250929050565b6000819050919050565b6105de816105cb565b81146105e957600080fd5b50565b6000813590506105fb816105d5565b92915050565b60006020828403121561061757610616610403565b5b6000610625848285016105ec565b91505092915050565b600081519050919050565b600082825260208201905092915050565b60005b8381101561066857808201518184015260208101905061064d565b60008484015250505050565b600061067f8261062e565b6106898185610639565b935061069981856020860161064a565b6106a281610417565b840191505092915050565b600060408201905081810360008301526106c78185610674565b905081810360208301526106db8184610674565b90509392505050565b600082825260208201905092915050565b60006107008261062e565b61070a81856106e4565b935061071a81856020860161064a565b61072381610417565b840191505092915050565b6000604083016000830151848203600086015261074b82826106f5565b9150506020830151848203602086015261076582826106f5565b9150508091505092915050565b6000602082019050818103600083015261078c818461072e565b905092915050565b7f4e487b7100000000000000000000000000000000000000000000000000000000600052602260045260246000fd5b600060028204905060018216806107db57607f821691505b6020821081036107ee576107ed610794565b5b50919050565b60008190508160005260206000209050919050565b60006020601f8301049050919050565b600082821b905092915050565b6000600883026108567fffffffffffffffffffffffffffffffffffffffffffffffffffffffffffffffff82610819565b6108608683610819565b95508019841693508086168417925050509392505050565b6000819050919050565b600061089d610898610893846105cb565b610878565b6105cb565b9050919050565b6000819050919050565b6108b783610882565b6108cb6108c3826108a4565b848454610826565b825550505050565b600090565b6108e06108d3565b6108eb8184846108ae565b505050565b5b8181101561090f576109046000826108d8565b6001810190506108f1565b5050565b601f82111561095457610925816107f4565b61092e84610809565b8101602085101561093d578190505b61095161094985610809565b8301826108f0565b50505b505050565b600082821c905092915050565b600061097760001984600802610959565b1980831691505092915050565b60006109908383610966565b9150826002028217905092915050565b6109a98261062e565b67ffffffffffffffff8111156109c2576109c1610428565b5b6109cc82546107c3565b6109d7828285610913565b600060209050601f831160018114610a0a57600084156109f8578287015190505b610a028582610984565b865550610a6a565b601f198416610a18866107f4565b60005b82811015610a4057848901518255600182019150602085019450602081019050610a1b565b86831015610a5d5784890151610a59601f891682610966565b8355505b6001600288020188555050505b505050505050565b7f4e487b7100000000000000000000000000000000000000000000000000000000600052603260045260246000fdfea264697066735822122022386be6eaa6017660fa4fc150d9b0933ec54b431a04de4a0ebc156aa46b665464736f6c63430008110033",
  "linkReferences": {},
  "deployedLinkReferences": {}
}